{
  "contractName": "ToDo",
  "abi": [
    {
      "inputs": [],
      "payable": false,
      "stateMutability": "nonpayable",
      "type": "constructor"
    },
    {
      "anonymous": false,
      "inputs": [
        {
          "indexed": false,
          "internalType": "uint256",
          "name": "id",
          "type": "uint256"
        },
        {
          "indexed": false,
          "internalType": "uint256",
          "name": "date",
          "type": "uint256"
        },
        {
          "indexed": false,
          "internalType": "string",
          "name": "content",
          "type": "string"
        },
        {
          "indexed": false,
          "internalType": "string",
          "name": "author",
          "type": "string"
        },
        {
          "indexed": false,
          "internalType": "bool",
          "name": "sign",
          "type": "bool"
        }
      ],
      "name": "TaskCreated",
      "type": "event"
    },
    {
      "constant": true,
      "inputs": [],
      "name": "owner",
      "outputs": [
        {
          "internalType": "address",
          "name": "",
          "type": "address"
        }
      ],
      "payable": false,
      "stateMutability": "view",
      "type": "function"
    },
    {
      "constant": true,
      "inputs": [],
      "name": "getTaskIds",
      "outputs": [
        {
          "internalType": "uint256[]",
          "name": "",
          "type": "uint256[]"
        }
      ],
      "payable": false,
      "stateMutability": "view",
      "type": "function"
    },
    {
      "constant": false,
      "inputs": [
        {
          "internalType": "string",
          "name": "_content",
          "type": "string"
        },
        {
          "internalType": "string",
          "name": "_author",
          "type": "string"
        }
      ],
      "name": "createTask",
      "outputs": [],
      "payable": false,
      "stateMutability": "nonpayable",
      "type": "function"
    },
    {
      "constant": true,
      "inputs": [
        {
          "internalType": "uint256",
          "name": "id",
          "type": "uint256"
        }
      ],
      "name": "getTask",
      "outputs": [
        {
          "internalType": "uint256",
          "name": "",
          "type": "uint256"
        },
        {
          "internalType": "uint256",
          "name": "",
          "type": "uint256"
        },
        {
          "internalType": "string",
          "name": "",
          "type": "string"
        },
        {
          "internalType": "string",
          "name": "",
          "type": "string"
        },
        {
          "internalType": "bool",
          "name": "",
          "type": "bool"
        }
      ],
      "payable": false,
      "stateMutability": "view",
      "type": "function"
    }
  ],
  "bytecode": "0x6080604052600160025534801561001557600080fd5b5033600360006101000a81548173ffffffffffffffffffffffffffffffffffffffff021916908373ffffffffffffffffffffffffffffffffffffffff1602179055506108c9806100666000396000f3fe608060405234801561001057600080fd5b506004361061004c5760003560e01c80631d65e77e14610051578063292a45851461017d5780638da5cb5b146102cf578063bcd1480514610319575b600080fd5b61007d6004803603602081101561006757600080fd5b8101908080359060200190929190505050610378565b60405180868152602001858152602001806020018060200184151515158152602001838103835286818151815260200191508051906020019080838360005b838110156100d75780820151818401526020810190506100bc565b50505050905090810190601f1680156101045780820380516001836020036101000a031916815260200191505b50838103825285818151815260200191508051906020019080838360005b8381101561013d578082015181840152602081019050610122565b50505050905090810190601f16801561016a5780820380516001836020036101000a031916815260200191505b5097505050505050505060405180910390f35b6102cd6004803603604081101561019357600080fd5b81019080803590602001906401000000008111156101b057600080fd5b8201836020820111156101c257600080fd5b803590602001918460018302840111640100000000831117156101e457600080fd5b91908080601f016020809104026020016040519081016040528093929190818152602001838380828437600081840152601f19601f8201169050808301925050505050505091929192908035906020019064010000000081111561024757600080fd5b82018360208201111561025957600080fd5b8035906020019184600183028401116401000000008311171561027b57600080fd5b91908080601f016020809104026020016040519081016040528093929190818152602001838380828437600081840152601f19601f820116905080830192505050505050509192919290505050610554565b005b6102d7610771565b604051808273ffffffffffffffffffffffffffffffffffffffff1673ffffffffffffffffffffffffffffffffffffffff16815260200191505060405180910390f35b610321610797565b6040518080602001828103825283818151815260200191508051906020019060200280838360005b83811015610364578082015181840152602081019050610349565b505050509050019250505060405180910390f35b60008060608060008560008060008381526020019081526020016000206000015414156103a457600080fd5b86600080898152602001908152602001600020600101546000808a81526020019081526020016000206002016000808b81526020019081526020016000206003016000808c815260200190815260200160002060040160009054906101000a900460ff16828054600181600116156101000203166002900480601f01602080910402602001604051908101604052809291908181526020018280546001816001161561010002031660029004801561049d5780601f106104725761010080835404028352916020019161049d565b820191906000526020600020905b81548152906001019060200180831161048057829003601f168201915b50505050509250818054600181600116156101000203166002900480601f0160208091040260200160405190810160405280929190818152602001828054600181600116156101000203166002900480156105395780601f1061050e57610100808354040283529160200191610539565b820191906000526020600020905b81548152906001019060200180831161051c57829003601f168201915b50505050509150955095509550955095505091939590929450565b6002600081548092919060010191905055506040518060a001604052806002548152602001428152602001838152602001828152602001600015158152506000806002548152602001908152602001600020600082015181600001556020820151816001015560408201518160020190805190602001906105d69291906107ef565b5060608201518160030190805190602001906105f39291906107ef565b5060808201518160040160006101000a81548160ff021916908315150217905550905050600160025490806001815401808255809150509060018203906000526020600020016000909192909190915055507fb322bdd3250d405f7845d27fa1f0753f8f7e18e40886bc254b89005c3e9c0324600254428484600060405180868152602001858152602001806020018060200184151515158152602001838103835286818151815260200191508051906020019080838360005b838110156106c85780820151818401526020810190506106ad565b50505050905090810190601f1680156106f55780820380516001836020036101000a031916815260200191505b50838103825285818151815260200191508051906020019080838360005b8381101561072e578082015181840152602081019050610713565b50505050905090810190601f16801561075b5780820380516001836020036101000a031916815260200191505b5097505050505050505060405180910390a15050565b600360009054906101000a900473ffffffffffffffffffffffffffffffffffffffff1681565b606060018054806020026020016040519081016040528092919081815260200182805480156107e557602002820191906000526020600020905b8154815260200190600101908083116107d1575b5050505050905090565b828054600181600116156101000203166002900490600052602060002090601f016020900481019282601f1061083057805160ff191683800117855561085e565b8280016001018555821561085e579182015b8281111561085d578251825591602001919060010190610842565b5b50905061086b919061086f565b5090565b61089191905b8082111561088d576000816000905550600101610875565b5090565b9056fea265627a7a723158205648cd93d8571593a43095e8a8d4892f8ae4cbdefd83cba8497a95772d17db0964736f6c63430005100032",
  "source": "// SPDX-License-Identifier: MIT\npragma solidity >=0.4.22 <0.9.0;\n\ncontract ToDo {\n    struct Task {\n        uint256 id;\n        uint256 date;\n        string content;\n        string author;\n        bool done;\n    }\n\n    event TaskCreated(uint id, uint date, string content, string author, bool sign);\n\n    // Task[] tasks;\n    mapping(uint => Task) tasks; // to speed up \n    uint [] taskIds;\n    uint lastTaskId = 1;\n    address public owner;\n\n    modifier taskExists(uint id){\n      if(tasks[id].id == 0){\n        revert();\n      }\n      _;\n    }\n\n    function getTaskIds() public  view returns(uint[] memory){\n      return taskIds;\n    }\n\n    function createTask(string memory _content, string memory _author)\n        public\n    {\n        lastTaskId++;\n        tasks[lastTaskId] = Task(lastTaskId, block.timestamp, _content, _author, false);\n        taskIds.push(lastTaskId);\n        emit TaskCreated(lastTaskId, block.timestamp, _content, _author, false);\n        // tasks.push(\n        //     Task(tasks.length, block.timestamp, _content, _author, false)\n        // );\n    }\n\n    function getTask(uint256 id) taskExists(id)\n        public\n        view\n        returns (\n            uint256,\n            uint256,\n            string memory,\n            string memory,\n            bool\n        )\n    {\n        return (\n            id,\n            tasks[id].date,\n            tasks[id].content,\n            tasks[id].author,\n            tasks[id].done\n        );\n    }\n    // function getTasks() public view returns ( Task[] calldata){\n    //   return tasks;\n    // }\n\n    constructor() public {\n      owner = msg.sender;\n    }\n}\n",
  "sourcePath": "/Users/yango3/Documents/yangjun/project/react/react-prj/eth-todo/contracts/ToDo.sol",
  "compiler": {
    "name": "solc",
    "version": "0.5.16+commit.9c3226ce.Emscripten.clang"
  },
  "schemaVersion": "3.3.4",
  "updatedAt": "2021-04-08T09:01:03.012Z",
  "networkType": "ethereum",
  "devdoc": {
    "methods": {}
  },
  "userdoc": {
    "methods": {}
  }
}